:020000040000FA
:10000000D0100020150200001D0200001F02000099
:100010002102000023020000250200000000000071
:1000200000000000000000000000000027020000A7
:1000300029020000000000002B0200002D02000039
:100040007D030000D5030000E50700002F0200003B
:100050002F020000000000002F0200002F0200000D
:100060002F0200002F0200002F0200006104000098
:100070002F0200002F0200002F0200002F020000BC
:100080002F020000850400002F0200002F02000054
:10009000A9040000010500002F0200002F0200004B
:1000A0002F0200002F0200000000000000000000EE
:1000B0002F0200002F0200000000000000000000DE
:1000C0000000000000000000000000000000000030
:1000D0000000000000000000000000000000000020
:1000E0000000000000000000000000000000000010
:1000F0000000000000000000000000000000000000
:1001000000000000000000000000000000000000EF
:1001100000000000000000000000000000000000DF
:1001200000000000000000000000000000000000CF
:1001300000000000000000000000000000000000BF
:1001400000000000000000000000000000000000AF
:10015000000000000000000000000000000000009F
:10016000000000000000000000000000000000008F
:10017000000000000000000000000000000000007F
:10018000000000000000000000000000000000006F
:10019000000000000000000000000000000000005F
:1001A000000000000000000000000000000000004F
:1001B000000000000000000000000000000000003F
:1001C000000000000000000000000000000000002F
:1001D000000000000000000000000000000000001F
:1001E000000000000000000000000000000000000F
:1001F00000000000000000000000000000000000FF
:10020000DFF80CD000F04AF800480047690D000004
:10021000D01000200648804706480047FEE7FEE76A
:10022000FEE7FEE7FEE7FEE7FEE7FEE7FEE7FEE7A6
:10023000050500000102000040EA01039B0703D00E
:1002400009E008C9121F08C0042AFAD203E011F815
:10025000013B00F8013B521EF9D27047D2B201E0D7
:1002600000F8012B491EFBD270470022F6E710B5BB
:1002700013460A4604461946FFF7F0FF204610BD14
:1002800030B504460020034600E05B1C934203D2D5
:10029000E05CCD5C401BF8D030BD0000064C074D43
:1002A00006E0E06840F0010394E807009847103446
:1002B000AC42F6D3FFF7A8FF382500005825000010
:1002C00000F01F02012191404009800000F1E02070
:1002D000C0F88012704700F01F02012191404009D0
:1002E000800000F1E020C0F88012704700F01F028B
:1002F000012191404009800000F1E020C0F8801108
:10030000704700F01F02012191404009800000F178
:10031000E020C0F80011704700F01F020121914059
:100320004009800000F1E020C0F80011704700F0A3
:100330001F02012191404009800000F1E020C0F837
:100340000012704700F01F02012191404009800017
:1003500000F1E020C0F8001270474907090E00289C
:1003600006DA00F00F0000F1E02080F8141D70475D
:1003700000F1E02080F800147047000070B54FF4E1
:100380008076304600F00AFD114CB50560B130466C
:1003900000F00BFD0120C5F80803607920B90120A9
:1003A00060712168002088474FF48276304600F063
:1003B000F5FC00280AD0304600F0F7FC0220C5F812
:1003C00008032168BDE870400120084770BD0000A7
:1003D000900000202DE9F0471E4CD4F800011E4F7C
:1003E0004FF4800A002638B1D4F80403C00703D0C4
:1003F000C4F80061C7F800A0D4F80C01174D4FF401
:10040000000950B1D4F80403000706D5C4F80C6104
:10041000C7F80090286900B18047D4F810014FF068
:10042000807850B1D4F80403C00606D5C4F8106132
:10043000C7F80080E86800B180470748001DC0F891
:1004400000A0C0F80090C0F800804FF0007101607B
:10045000BDE8F0870010004008050050B000002003
:100460000648D0F84011012902D10021C0F84011FE
:100470000348406A002800D00047704700B00040A1
:100480000000002007480021C0F84011C0F84411C6
:10049000C0F84811C0F84C11C0F80011C0F80411A0
:1004A00001F026BF001001407CB5144C606A019039
:1004B0002078002821D00120FFF718FF656800266A
:1004C00066600120FFF728FFE169002915D0E807E1
:1004D00003D08DF8006068468847A80705D501203D
:1004E0008DF80000E16968468847680705D5022055
:1004F0008DF80000E169684688477CBDB0000020A7
:1005000001F068BE2DE9F047A44E4FF08054371D2E
:1005100031783D1D4FF0010906290BD138780007CD
:1005200008D12878C0F30310032806D0042804D08B
:10053000052802D0062907D011E0B4F82403984911
:10054000C0F30420086002E03878000707D128785B
:10055000C0F30310032802D193499248486700F082
:10056000BFFA28B1D4F844029049C0F34230086081
:100570003078B04606280CD13878000709D12878A1
:10058000C0F30310032804D18948016821F0807169
:10059000016000F0CBFA002640B14FF08040C0F877
:1005A0000C61C0F810618148001F066098F80000D7
:1005B000062807D13978090704D12978C1F3031136
:1005C000032902D0062805D019E0784A03216432B5
:1005D000116007E03978090711D12978C1F30311B7
:1005E00003290CD1734B05221A60724A7832C2F883
:1005F0000090704908310E603F211A1D1160D4F837
:1006000030110A2904D1D4F834215AB1012A09D071
:10061000062807D13A78120704D12A78C2F30312C8
:10062000052A55D1644A1268644B1A60624A121D49
:1006300012681B1D1A60604A083212681B1D1A607E
:100640005D4A0C3212681B1D1A605B4A1032126838
:100650001B1D1A60584A143212681B1D1A60564A34
:1006600018321268554B20331A60534A1C321268F4
:100670001B1D1A60504A203212681B1D1A604E4A18
:10068000243212681B1D1A604B4A283212681B1D47
:100690001A60494A2C3212681B1D1A60464A3032D1
:1006A0001268464B40331A60434A343212681B1DAD
:1006B0001A60414A383212681B1D1A603E4A3C32A9
:1006C00012681B1D1A603C4A403212681B1D1A60DA
:1006D0000A2905D1D4F8341111B9394AFB21116026
:1006E000062811D1387800070ED12878C0F30310FE
:1006F000032803D0042801D0052805D1D4F85802D6
:10070000304900F04F00086000F0C4F930B12E48C5
:100710000168C90702D06FF001010160D4F830010F
:10072000062808D1D4F83401062804D127480168E6
:1007300041F4806101604FF01021D1F800020028DF
:1007400003DBD1F80402002823DA214AC2F8009022
:1007500020480368002BFCD01523C1F80032046840
:10076000002CFCD0C1F8043201680029FCD01660CE
:1007700001680029FCD0BFF34F8F0D48F0380168A5
:10078000154A01F4E06111430160BFF34F8F00BFD0
:10079000FDE7134911480860BDE8F087E00F00F05D
:1007A000403501400DF0ADBA00C007403C050040A7
:1007B000FCED00E0105600400404001020C500408D
:1007C00018F50040E40E0040000400403C170040D3
:1007D00004E5014000E401400400FA050090D00364
:1007E000F800002001480068004700008800002051
:1007F00002E008C8121F08C1002AFAD170477047EA
:10080000002001E001C1121F002AFBD170470068DF
:1008100090FAA0F000BA00BA7047000072B609481A
:100820000068C00700D000BEBFF34F8F0548E43812
:100830000168054A01F4E06111430160BFF34F8F85
:1008400000BFFDE7F0ED00E00400FA050EB5002161
:100850000091CDE901106A4644F20100FFF7DEFF86
:100860000EBD00F003B800F009B8000072B60248EF
:100870000168491C0160704798000020034908681E
:10088000401E086000D162B670470000980000204A
:100890002DE9FC410646C0074FF000050ED0104F71
:1008A00000240122385D009500231146019500F0D7
:1008B00093FE641C042CF4D300F01CF8B0070DD593
:1008C000074E0024361D0022305D0323009511469B
:1008D000019500F081FE641C042CF4D3BDE8FC817A
:1008E000202500000249085C012100F0A7BE00009D
:1008F0002025000010B500242046FFF7F3FF641CFC
:10090000042CF9D310BD006890FAA0F000BA70472B
:1009100070B50F4DA8680F4CC4F800020E48696905
:10092000C07C88470E490D4808600021C4F81011AA
:1009300001202061D4F81021002AFBD0C4F8101146
:10094000A96841F00401C4F80012606070BD0000A5
:10095000B0000020001000407C020020E4070020CE
:100960000415004070B5084C050009D0103421680A
:10097000002907D008682060496828468847F6E7BC
:100980000834F4E770BD00005C010020054A012135
:1009900020B1012805D19170FFF7E4BF517000200C
:1009A000FAE770475C0100202DE9F05F26484168B6
:1009B000F1B3DFF898B00E688146DBF80040876835
:1009C0008078E11B21F07F45ED1CB0B9DFF8808015
:1009D0004FF48030C8F84403C8F804031120FFF72F
:1009E0006FFC1120FFF78DFC4FF0010AC8F800A042
:1009F0002F2000F075FE89F802A0B54200D23546DE
:100A0000124BE8193C3320F07F401860DBF80010EF
:100A10005A46091B21F07F41001B20F07F40C91C72
:100A200081420FD9106818602F2000F059FE00E0B5
:100A300004E0BDE8F05F1120FFF779BCBDE8F05F8E
:100A400001F0B4B9BDE8F09F9C00002004150140FE
:100A5000001001400E4910B50A784C780023A242DC
:100A600012D0521CD2B20A70022A00D10B70084A6E
:100A70000B780C3252F8232002608868104420F072
:100A80007F408860012010BD0360002010BD000081
:100A90009C0000204FF08050D0F830110A2904D17A
:100AA000D0F83401B8B1012814D00C4800780628D9
:100AB00011D10A48001D007800070CD10748083002
:100AC0000078C0F30310032805D0042803D00528BC
:100AD00001D000207047012070470000E00F00F0B7
:100AE0004FF08050D0F830110A2904D1D0F83401E9
:100AF000B8B1012814D00C480078062811D10A4852
:100B0000001D007800070CD1074808300078C0F3BA
:100B10000310032805D0042803D0052801D00020A5
:100B20007047012070470000E00F00F04FF0805048
:100B3000D0F830110A2904D1D0F83401B8B1012815
:100B400014D00C480078062811D10A48001D0078FE
:100B500000070CD1074808300078C0F303100328C1
:100B600005D0042803D0052801D0002070470120BB
:100B700070470000E00F00F070B508240F252046F4
:100B800000F03CFD641CAC42F9D90120FFF780FE67
:100B9000032000F033FD042000F030FD1C2000F0A5
:100BA0002DFD1D2000F02AFD1E2000F027FD032052
:100BB00000F02CFD042000F029FD1C2000F026FD93
:100BC0001D2000F023FDBDE870401E2000F01EBD7A
:100BD00070B501F0DDF81E490020A1F5167300BFC5
:100BE000C0EB001202EB82021A4441F82020401CA4
:100BF0000828F5DB164900202C3101F5167200BFDC
:100C0000C0EB001404EB84040C4442F82040401C68
:100C10000828F5DB00200F4A4FEA0001C0EB001462
:100C200004EB8404E51800EB4004401C42F8245017
:100C300002EB840408282171A160EFDB054A002043
:100C400012F1600242F82010401C0828FADB70BD47
:100C5000EC0400202C0800200268134602E08A42BF
:100C600004D01268002AFAD10B60016070470000BE
:100C70002DE9F047394E002780463D46DFF8E090E9
:100C8000D6F804A057E003D00446D0F81C8035E025
:100C900099F8002002EB4201521CD2B289F80020E0
:100CA00009EBC10199F80230091D9A4201D189F876
:100CB000005048680A780446012A12D0022A02D05D
:100CC000032A3BD108E001F0E3FA00B101272574C3
:100CD00034E00574C06900E070680028F9D17060E4
:100CE0002CE0207C50BB88686060C868A060086900
:100CF000E0604869A061F07800B165606268B16841
:100D0000184B501A20F07F40984202D2A168084444
:100D100006E0881AA16820F07F40814202D9081AB3
:100D2000206000E0256065600120A56020742046F9
:100D3000E56101F08FFAB8F10000A4D199F8001034
:100D400099F801008142A3D117B97168514502D0C9
:100D50000120BDE8F0870020FBE700009C00002098
:100D600070010020FFFF7F00FFF706FF00F026F86C
:100D700008B1FFF76BFD002000F03EF80023064AA3
:100D80000421012000F064FF1E2000F0F9FE20BFC6
:100D900040BF20BFFBE70000D51A000000F18040F3
:100DA0000068002800D00120704708B500F180409D
:100DB000002101600068009008BD000070B50C4C77
:100DC0000125207808B185260BE00020A060606036
:100DD0002061E060074800F05BFC064600F042FC42
:100DE000257000F037FC00B1A570304670BD0000E2
:100DF0005C0100208D09000070B5104D0446A878F4
:100E000038B114B16168012088470020FFF729FD3F
:100E10000CE00020FFF725FD24B1084821461030E2
:100E2000FFF71AFFE86808B900F042FCE868401CC8
:100E3000E860BDE870400020FFF715BD5C010020B0
:100E400070B50C494FF4705008600B4C002565706C
:100E5000257000F09DFF20210848FFF706FAE562A3
:100E600014202563FFF742FA05490320C1F8000268
:100E7000002070BD08F50140B0000020AC08002043
:100E8000001000400449497809B111207047024917
:100E90003431887400207047B0000020094810B534
:100EA000007860B10120FFF721FA07480021816234
:100EB000016241620120FFF72FFA002010BD0820D7
:100EC00010BD0000B0000020EC040020082801D371
:100ED0000720704701490844007A7047E400002069
:100EE00070B5050012D0394C207818B1FFF7A8FF73
:100EF00000280CD16868E061182229463448FFF7C1
:100F00009BF9334E707D282802D006E00E2070BD7C
:100F10003048016841F00101016000256560202131
:100F20002D48FFF7A2F9E562256301F067FAE8B3FF
:100F30002A494FF0E7300860091D4FF04330086040
:100F4000091D27480860091D26480860FFF740FE74
:100F5000254904200860244808380560234840F2E9
:100F60000221C0F80012234A21491160111D0860B6
:100F70001F48001D091D08601C481030091D08602D
:100F8000091D1D4808601A48F038091D08601A48F4
:100F9000001D091D0860091D18480860707C00F0DC
:100FA00007010120FFF7D9F9B07C00E00CE000F068
:100FB00007011420FFF7D1F91420FFF7ADF9657090
:100FC00001202070002070BD072070BDB0000020FF
:100FD0007C02002050160040AC0800201C15004088
:100FE000E743C323A363E31310A5004000A0004020
:100FF0000011004060F5014040A100400010004099
:1010000070B50078002834D0012832D0022830D1C1
:10101000184800F0BBF8174C01253B3C00BB607A38
:10102000144910B1012803D014E0487958B111E0F7
:101030004879607038B12570B4F84100208394F885
:101040004300A07606E0B4F84100A4F8150094F837
:101050004300E075084800F027FAA16A012088479C
:10106000022060720548856005490F200860002055
:10107000A07170BD3B0000200E01002000B00040B8
:1010800040B500402DE9F05F07463E4C0078002552
:1010900004F11C0AF0B304F112094FF0010804F145
:1010A0000E0B04F10C06012802D0022831D102E017
:1010B000FFF7F4FE2BE0E079324A43460BF800805C
:1010C000103206F800805946155401280BD10A78D1
:1010D0000AB132783AB19BF8011009B1717811B1B7
:1010E000627909F8025027490A310D5416312370EC
:1010F00031F81020521C21F810202349085C4FF0D1
:10110000A0418340C1F80C35A16A00208847387897
:1011100000B100E019E0E17938EA0100E07122D085
:101120009BF8001009B1317849B19BF8010008B172
:10113000707820B1617909F8015035707570E179E6
:101140003AF81120521C2AF81120E0793AF81020C0
:10115000B2F57A7F05D10B492AF81050203121F8D9
:101160001050BDE8F09F60790321401CB0FBF1F204
:1011700001FB1200034960711531085C00F0D6F8DC
:10118000DDE7000000000020F824000070B50546EF
:101190001E48007880B385B31D4CA06A70B301204F
:1011A000FFF7A4F8606A54F820100A782A7054F8FF
:1011B00020104978697054F820108978A97054F883
:1011C00020100979297154F82010C978E97054F871
:1011D0002010681D491DFFF72FF8606A401C6062EF
:1011E000082801D300206062A06A401EA06201208E
:1011F000FFF792F8002070BD01E002E003E0082054
:10120000F9E70E20F7E70520F5E70000B000002021
:1012100070070020144A10B5517809B1112010BD93
:1012200012490023C1F810319468C1F80042042427
:1012300054700F4A10600120C1F80400D1F8002159
:10124000002AFBD0C1F80031C1F81400D1F81C010C
:101250000028FBD0C1F81C3100F0EEF80448403003
:101260000068C0B210BD0000B000002000100040B7
:101270000815004010B50C460146204600F0FEF867
:1012800005480322015D491CB1FBF2F302FB131177
:101290000155002010BD0000DC000020074910B5FA
:1012A0004A780AB1112010BD30B1006848630120AE
:1012B00001F058F8002010BD0E2010BDB000002035
:1012C000074910B54A780AB1112010BD30B1006845
:1012D0008863022001F046F8002010BD0E2010BDEA
:1012E000B000002010B50C460F49497809B1112013
:1012F00010BD18B1082C03D9072010BD0E2010BD59
:101300000146094822463C30FEF796FF0648C4F1E4
:1013100008023430FF210474D1408174042001F0AC
:1013200021F8002010BD0000B000002006494978D7
:1013300009B111207047642801D90720704702497C
:101340003431C87400207047B00000200E4810B53A
:101350000078A0B10D4CA06A98B10120FEF7C6FF3D
:10136000A06A401EA062606A401C6062082801D327
:10137000002060620120FEF7CFFF002010BD082092
:1013800010BD4FF4807010BDB0000020EC040020B0
:1013900070B51A48417809B1112070BD184C4FF052
:1013A000FF31C4F808130025C4F810511549C16075
:1013B000816841F00401C4F800121021C4F804133C
:1013C000042141700D48104A3430817C11600E496F
:1013D000C07C28390860091F0C480860012094343B
:1013E000FEF779FF0120FEF797FF25676567E56740
:1013F000012044F8900C002070BD0000B0000020D7
:1014000000100040F116000030150040E4070020F5
:10141000074810B5407808B1112010BD0548806A12
:1014200018B100F045FE002010BD4FF4807010BDD3
:10143000B0000020EC0400200E4A5078042805D0AB
:101440005078052802D040F2011070470A48002168
:10145000C0F800124B1EC0F80833D160C0F810115C
:1014600001230361D0F81031002BFBD05170002014
:1014700070470000B000002000100040094A10B57D
:1014800052780AB1112010BD082801D3072010BDE1
:10149000044A343210440172042000F063FF00203B
:1014A00010BD0000B00000202DE9F047DFF818A1C2
:1014B00006469AF8000040B156B1307868B1462827
:1014C0000BD8424F397829B109E00820BDE8F087F0
:1014D0000E20FBE7F97C884201D90920F6E73C4C55
:1014E000A06A082801D30420F0E77078082801D307
:1014F0000720EBE70120FEF7F9FEDFF8CC807878D3
:101500004FF0000908F12C0860B13249002000BFFB
:1015100000EB400201EB82021279EAB1401C08287C
:10152000F6DB42E0206A4B22314654F82000FEF7F9
:1015300083FE727818F80210491C01F0030108F8C4
:101540000210206A54F82020401C082811712062E3
:1015500028D3C4F8209025E000EB400011EB800573
:1015600023D001202871C5F808904B223146286805
:10157000FEF762FE727818F80210491C01F00301B0
:1015800008F802102868134A01717178603252F825
:10159000210018B942F8215004E00846816800296A
:1015A000FBD18560A06A401CA0620120FEF7B4FE5A
:1015B000787830B9387C20B99AF8010008B900F081
:1015C00077FD002082E70000B00000207C020020B0
:1015D000EC0400202C08002070B541EA4201DDE94E
:1015E00004564FF0A04441EA830141EA052104EB8F
:1015F000800041EA0641C0F8001770BD4FF0A042DC
:1016000002EB80000321C0F8001770474FF0A042A2
:1016100001218140C2F80C1570474FF0A042012112
:101620008140C2F80815704731B14FF0A042012146
:101630008140C2F808157047FFF7E8BF01224FF05C
:10164000A043824011B1C3F808257047C3F80C25A8
:101650007047000002480068002800D00120704751
:101660000004014008480068012110F0010F06D174
:101670004FF0E020C02280F80024C0F80011034998
:10168000012008607047000000E100E018050040FC
:101690000649024600200B790BB1852070470A608D
:1016A00001220A7100224A71704700009000002058
:1016B00010B54FF48270FFF778FB02204107C1F8A4
:1016C000040302490120086010BD0000080000402A
:1016D000002802D001498001084770470125000019
:1016E000002802D0014980010847704731250000D9
:1016F0002DE9F05F614800220127006818B16048B9
:10170000806A082803D3BDE8F05FFFF701B9DFF86E
:101710006C9109F10809D9F800005A4901EB8005DC
:1017200009F104010C68564B2E887433B442587882
:1017300005D1AC78B4EB500F01D10122002740084D
:10174000A87008689B4628804F48DFF840A1017DBB
:1017500019B19BF80110C90710D0DAF808104C4BEA
:1017600041F00801C3F800124849454C0078496926
:1017700000262C34A8B301285BD102E0FFF7C8F89B
:1017800064E0DFF810E1DEF828C0BCF1000F42D0C1
:10179000D9F800804B460EF5687050F82880B8F1F3
:1017A000000F38D01B68D04650F823301B68CAF8A9
:1017B0001830EB78012B1DD1E2B9D9F80020BCF12B
:1017C000010C50F822301E7150F822309B6840F80E
:1017D0002230CEF828C005D023B11868C8F8180008
:1017E00002E020E0C8F81860D8F8040040F00100DA
:1017F000C8F80400D8F8180068B10122EA7000782F
:101800008847D8F818100878207011F8052BA01C0C
:10181000FEF712FD03E0EE700020884726709BF86B
:101820000100607005E0002088479BF800002070F0
:10183000667005218AF80110D9F80010164A116067
:10184000154928390C601549CAF80C10002F12D020
:10185000A978D9F80000C0B200F0DEFB00280AD059
:10186000DAF8041041F00401CAF80410BDE8F05F92
:101870001420FEF767BDBDE8F09F00000014004093
:1018800070070020AC0800207C020020B00000207F
:1018900000100040EC0400202C150040A1180000AE
:1018A00010B5094CA068094940F00400C1F80002D5
:1018B00007486169C07C88470749064808600748AF
:1018C000E0600420607010BDB000002000100040F7
:1018D0007C020020E407002004150040F1160000FF
:1018E00070B5174CA068174BC3F80002A06A1649E0
:1018F000086016488189427D891A134A121D1160B9
:101900001349012241F80C2F0022C1F83421C1F8FB
:101910003821104D4FF4E051296059142D1D2960D4
:10192000C3F80C21007810B96169002088470B4981
:10193000094808600A48E0600320607070BD00003C
:10194000B00000200010004040A500407C020020B4
:1019500000A0004004F50140E40700200415004009
:10196000A119000010B50C4C606840F001006060E7
:10197000FFF7ECFC0948806A30B11420FEF7E2FC66
:10198000BDE8104000F094BB00206070BDE810403E
:101990001420FEF7D7BC0000B0000020EC040020AB
:1019A0002DE9F047414A4FF4E05010604049D1F82A
:1019B0000C31DFF8009100273F4CB9F80E004E14AF
:1019C000DFF8F8800125E3B33D4B1B68CBB32561FD
:1019D0001660D8F8041041F00101C8F80410D8F8D6
:1019E0002010401A401CC8F82400FFF7AFFC99F8FB
:1019F000000088B109F5AD60017869B1407841080F
:101A000030480068C0B200F007FB28B1D8F80400E5
:101A100040F00400C8F804002B48806A50B199F8DF
:101A20001000012806D01420FEF78CFCBDE8F0471A
:101A300000F03EBB88F80170BDE8F0471420FEF7C7
:101A400081BCD8F820C0BCF1010CC8F820C00BD272
:101A500025611660401CC8F82400D8F8040040F046
:101A60000200C8F80400E5E7D8F808000F4640F087
:101A70000802C1F80022D8F81800D8F8141000782D
:101A8000884710481149283801601148C8F80C00EF
:101A9000022088F8010025600448001F0660D4F881
:101AA0004401002800D03D60BDE8F08708F5014002
:101AB000001000407C02002000A00040B000002088
:101AC000001400402C150040EC0400209C0700206E
:101AD000E118000000B593B0002838D1684600F046
:101AE00038F89DF80300410703D000F007000428F0
:101AF00001D9012100E000211120FFF795FD9DF89B
:101B0000030000F00700012801D9052801D90121AF
:101B100000E000211220FFF787FD9DF8030000F090
:101B20000700022801D9062801D9012100E000217F
:101B30001320FFF779FD9DF8030000F0070003284C
:101B400001D8012100E000211420FFF76DFD13B042
:101B500000BD10B594B004466846FFF717FB9DF82A
:101B6000000020709DF80100FFF7B0F960709DF84B
:101B70000020A01C0DF10501FEF75EFB14B010BDA6
:101B80000149086000F002B840B500400249012058
:101B900008602F20FFF79CBD00B000402DE9FE43F8
:101BA00027A207CA8DE8070000202849FF2200BFAE
:101BB00001EB4003401CC0B25A700928F8D300253D
:101BC0006E4688465FF0000408EB4407797831558B
:101BD00018F81400FFF71EFB7870315D884200D9B9
:101BE00079700A20FFF774FD641CE4B2092CEBD372
:101BF0006D1CEDB2322DE5D30020451CE9B2424602
:101C000008EB400414E002EB410366785F78BE42C3
:101C10000CD212F8107012F811C002F810C093F82C
:101C200001C084F801C002F811705E70491CC9B28D
:101C30000929E8D3E8B20928DFD3BDE8FE83000014
:101C4000FFFFFFFFFFFFFFFFFF000000FC00002081
:101C50002DE9F043074645A087B00068444D069043
:101C60000E46AA629946182242496846FEF7E4FAEF
:101C7000012404208DF800408DF808000FB13E4883
:101C800000E03E48019087F001008DF80100ADF8BA
:101C90000E40C8204FF00008ADF80C008DF81480FD
:101CA0008DF80A608DF810406846FFF719F9314841
:101CB0001838FFF7F3FA2F481438FFF701FB2C4EC2
:101CC00015363078FFF732FB0FB98DF819900221E5
:101CD00006A8FFF707FB0320FFF7D4F80FB1284849
:101CE00000E02848284968624FF48030C1F80403B6
:101CF00042114FF0E020C0F88022C0F80021D0044B
:101D0000C0F80081C0F80040D0F800110029FBD0D5
:101D10001749002032311D4CFF220B5C04F81030B3
:101D200004EB4003401CC0B25A700928F5D3FFF7FA
:101D300035FF002014F810103154401CC0B20328A5
:101D4000F8D3B5F815002883E87DA8760849002067
:101D500011F12C0104EB400292790A54401CC0B2EC
:101D60000628F7D307B0BDE8F083000000010000AB
:101D70000000002008250000851000000110000070
:101D8000251F0000E91D000000B00040FC000020FD
:101D90000549002008624862886201F521710862E5
:101DA0004862886270470000EC04002070B501268C
:101DB00070044FF0E0210025C1F88001084C40106C
:101DC000C4F84803C4F8080366602F20FFF788FCB6
:101DD000A660044C2F20A560FFF782FCA57070BDA3
:101DE000001001409C0000202DE9F047DFF824811D
:101DF000494E012498F809004FF0A0494FF0804A5D
:101E0000002548B1454F022827D098F80100A8B313
:101E1000401E88F8010045E0B46098F8080038B129
:101E200088F80850FFF708FBC9F80CA5BDE8F08753
:101E300088F808401E20FFF7F0FB98F805000921FC
:101E4000401CB0FBF1F201FB1200354988F8050097
:101E500011F81000FFF76AFA57E098F8020018B975
:101E6000FFF7EAFAC9F80CA588F809404046B460C3
:101E700098F8021019B18570FF2101E005E01E21DC
:101E80003960047188F80340D0E798F8000048B141
:101E9000B8F81800A8F8150098F81A0088F8170084
:101EA00088F8005098F806000C2809D388F80950E3
:101EB000B4607820386088F8045088F8055024E031
:101EC00098F80410D9B1B4603C20386098F8030049
:101ED00008B9FFF7B1FA0F4898F805101530405CC3
:101EE000FFF724FA98F805000321401CB0FBF1F23B
:101EF00001FB120088F8050088F8035002E0401C3E
:101F000088F806001E20FFF788FBBDE8F047FFF7C2
:101F10003FBA00000000002000B0004040B5004083
:101F2000FC000020F8B5FF200090FEF7B7FF37490E
:101F300001208860364A0027A2F11004961EE0793D
:101F4000115C491CC9B21154642900D33754401C98
:101F5000C0B20121FFF78EF92D4DE079AD1F05F1DB
:101F60003101285C4871208BA4F84100A07E84F8E0
:101F700043000846FFF798FA0090B0B100BF3078F0
:101F800010B1707800B100BF207800283CD0E07913
:101F9000315C1F4EB61C19B16179725C521C7254CF
:101FA000295C51B1491E295413E0FFF731FA194851
:101FB000E179405CFFF731FBE1E715490322083185
:101FC000C81EFEF75DF920B1208BA4F81500A07E95
:101FD000E0756179705C062816D30D483780B770BC
:101FE000401D0B4A27701C32A2F11406405C137886
:101FF0007354D4F82D3094F831105071E36284F8A2
:102000003010052028706870F8BD000000B0004056
:1020100010000020F82400002DE9F041224C074672
:102020008846A06A08283DD2A4F2F44120460A78E6
:102030000026006A01F5AD65012A03D04A7842B155
:10204000C97C02E0297846292CD854F82020117048
:1020500002E054F820100E7054F82000A91C10F86B
:10206000052BFEF7E9F8206A54F820104F700F494D
:10207000096854F82020917054F8202082F80480D8
:10208000697854F8202041F30001491C401CD170AC
:102090002062082800D32662A06A401CA0620120AA
:1020A000BDE8F0810020FBE77007002048150040E4
:1020B0002DE9F05F404C4FF00108C4F824803F4800
:1020C000DFF8FCA0A0F51C77416A3E4D4FF0000BF5
:1020D00050F82110A161387807F5A46610B10128E5
:1020E00044D10DE0087861698847A16908793070AA
:1020F00086F801B011F8052BB01CFEF79DF819E029
:10210000C87828B3387D18B300200A7832700A796D
:1021100081465206120E7270CB783046D3B100233E
:102120001A43427011F8052BB01CFEF785F8B9F17F
:10213000000F11D0A06840F00800C5F8000211207F
:10214000C5F80403F88920620220C4F80CA00CE052
:102150000120DAE70123E3E7A068C5F800021020B8
:10216000C5F804031848E06040466070A069174A4B
:10217000417811604078444608FA00F0111D08606B
:102180000D48124934302439C07C0860081F0660AD
:102190000120FEF7A0F80120FEF7BEF8C5F804B153
:1021A000C5F808B1C5F810B109494FF000700860D2
:1021B0002C60BDE8F09F0000B0000020EC0400207F
:1021C000E118000000100040651900002C150040C7
:1021D000080500502DE9F84F1D4C00256846D4E94C
:1021E00001A6FEF737FC002738B30023009A616888
:1021F0001CE0D1F800C00846944503D9ACEB0202BC
:102200000A6015E0A2EB0C0263440760D0F80CC032
:10221000C1698146BCF1000F08D006EB030828F025
:102220007F48C0E9018CC9F81C5005460029E0D15F
:1022300028466160FEF71CFD03E02846FEF718FD06
:1022400010B15046FEF7B0FBE770BDE8F88F000014
:102250009C0000200D4B10B5596831B102680C6824
:10226000A24204D8A21A0A60C161586010BD0B4690
:1022700003E00B46C969121B21B10C689442F8D3E4
:10228000A41A0C600260C161D86110BD9C000020DE
:102290002DE9F041144E77683D462C4603E0844218
:1022A00004D02546E469002CF9D11BE0D4B1A54245
:1022B0000BD1F869706040B90C4901208860002199
:1022C000B160F0702F20FFF70BFA2168E069E86138
:1022D00010B10268114401607068874202D0012089
:1022E000BDE8F0810020FBE79C00002000100140C9
:1022F0002DE9F041194D6C68002C2CD018480027AE
:102300000068A968B846401A20F07F462068B042AD
:102310000CD82146361A0744E469087C20B181F8BC
:102320001080886949698847002CEFD1297868783E
:10233000814206D1401CC0B26870022801D185F8E4
:102340000180064869780C3040F82170BDE8F04102
:102350001520FDF7ECBFBDE8F08100009C000020D7
:102360000415014010B50446C00704D00F48FEF71D
:102370004EFA0F490860A00706D50C48001DFEF76D
:1023800046FA0B49091D086060070DD5074808305B
:10239000FEF7B9FA06490831086004480C30FEF728
:1023A000B2FA03490C31086010BD0000E4000020BF
:1023B0001C1500400E490F480A7A02600E48492356
:1023C00052B1012A05D0032A06D0042A01D00020E8
:1023D00070472D22826200E083628B89826A3E32DE
:1023E000934202D2806A3E3088810120704700000B
:1023F0007C02002010150040B000002070B500F0F5
:102400003FF8FFF7D7FF1849184A0B787BB1012B2B
:102410000BD00023034016484D7A041FB5B1012D9F
:102420000ED0022D07D0002417E0124B00E0124B13
:1024300053610123EEE74FF6FF7606600F4803E095
:10244000FF26066040F20710206002E000260660CA
:1024500026600748083805600124C87C51691C4083
:102460008847204670BD00007C020020B00000209C
:102470003C150040C12400009524000021100100FB
:1024800002480349807A0860704700007C020020FF
:102490000C150040084A074911600849497C491E4B
:1024A000090441EA0021014341F08070111D0860D8
:1024B000704700000001010014150040E4000020F6
:1024C00007490648086007480749407C401E41EA22
:1024D00000400349091D0860704700000800030020
:1024E00014150040E4000020460000010000000038
:1024F000E7E7E7E7C2C2C2C203041C1D1E000000DA
:102500000338FDD870470000010000000000000003
:102510000402000055000300000102000028000032
:10252000111213140D0E0F10000000000000000027
:102530000338FDD870470000582500000000002037
:10254000FC000000F007000054260000FC00002002
:10255000D40F000000080000000000000000000090
:10256000000000000000000000000000000000006B
:10257000000000000000000000000000000000005B
:1025800000000000000000000000022A480C162095
:10259000343E4E0401000000C0C1C2C30000000070
:1025A000000000000000000000000000000000002B
:1025B000000000000000000000000000000000001B
:1025C000000000000000000000000000000000000B
:1025D00000000000000000000000000000000000FB
:1025E00000000000000000000000000000000000EB
:1025F00000000000000000000000000000000000DB
:1026000000000000000000000000000000000000CA
:1026100013010000000000000000000000000000A6
:1026200000000000000000000000000000000000AA
:10263000000000000000000000000000E7E7E7E7FE
:10264000C2C2C2C2E7C2C3C4C5C6C7C80805FF022A
:042650000090D00323
:0400000500000201F4
:00000001FF
