:020000040000FA
:10000000702B0020150200001D0200001F020000DE
:100010002102000023020000250200000000000071
:1000200000000000000000000000000027020000A7
:1000300029020000000000002B0200002D02000039
:10004000B50300000D040000F90600002F020000B7
:100050002F020000000000002F0200002F0200000D
:100060002F0200002F0200002F0200009904000060
:100070002F0200002F0200002F0200002F020000BC
:100080002F020000BD0400002F0200002F0200001C
:10009000E1040000390500002F0200002F020000DB
:1000A0002F0200002F0200000000000000000000EE
:1000B0002F0200002F0200000000000000000000DE
:1000C0000000000000000000000000000000000030
:1000D0000000000000000000000000000000000020
:1000E0000000000000000000000000000000000010
:1000F0000000000000000000000000000000000000
:1001000000000000000000000000000000000000EF
:1001100000000000000000000000000000000000DF
:1001200000000000000000000000000000000000CF
:1001300000000000000000000000000000000000BF
:1001400000000000000000000000000000000000AF
:10015000000000000000000000000000000000009F
:10016000000000000000000000000000000000008F
:10017000000000000000000000000000000000007F
:10018000000000000000000000000000000000006F
:10019000000000000000000000000000000000005F
:1001A000000000000000000000000000000000004F
:1001B000000000000000000000000000000000003F
:1001C000000000000000000000000000000000002F
:1001D000000000000000000000000000000000001F
:1001E000000000000000000000000000000000000F
:1001F00000000000000000000000000000000000FF
:10020000DFF80CD000F04AF800480047AD0B0000C2
:10021000702B00200648804706480047FEE7FEE7AF
:10022000FEE7FEE7FEE7FEE7FEE7FEE7FEE7FEE7A6
:100230003D0500000102000040EA01039B0703D0D6
:1002400009E008C9121F08C0042AFAD203E011F815
:10025000013B00F8013B521EF9D27047D2B201E0D7
:1002600000F8012B491EFBD270470022F6E710B5BB
:1002700013460A4604461946FFF7F0FF204610BD14
:1002800030B504460020034600E05B1C934203D2D5
:10029000E05CCD5C401BF8D030BD0000064C074D43
:1002A00006E0E06840F0010394E807009847103446
:1002B000AC42F6D3FFF7A8FF88230000A823000074
:1002C00030B58C1810F8012B12F00F0301D110F883
:1002D000013B120906D110F8012B03E010F8015B75
:1002E00001F8015B5B1EF9D101E001F8013B521EF0
:1002F000FBD1A142E6D3002030BD00F01F02012156
:1003000091404009800000F1E020C0F88012704761
:1003100000F01F02012191404009800000F1E0201F
:10032000C0F88012704700F01F020121914040097F
:10033000800000F1E020C0F88011704700F01F023B
:10034000012191404009800000F1E020C0F8001137
:10035000704700F01F02012191404009800000F128
:10036000E020C0F80011704700F01F020121914009
:100370004009800000F1E020C0F80012704700F052
:100380001F02012191404009800000F1E020C0F8E7
:10039000001270474907090E002806DA00F00F0026
:1003A00000F1E02080F8141D704700F1E02080F893
:1003B0000014704770B54FF48076304600F016FC9C
:1003C000114CB50560B1304600F017FC0120C5F8AE
:1003D0000803607920B901206071216800208847F6
:1003E0004FF48276304600F001FC00280AD03046F7
:1003F00000F003FC0220C5F808032168BDE8704046
:100400000120084770BD0000840100202DE9F0475D
:100410001E4CD4F800011E4F4FF4800A002638B15C
:10042000D4F80403C00703D0C4F80061C7F800A0E3
:10043000D4F80C01174D4FF4000950B1D4F804035F
:10044000000706D5C4F80C61C7F80090286900B110
:100450008047D4F810014FF0807850B1D4F80403ED
:10046000C00606D5C4F81061C7F80080E86800B17E
:1004700080470748001DC0F800A0C0F80090C0F8F1
:1004800000804FF000710160BDE8F087001000406F
:1004900008050050A40100200648D0F840110129A9
:1004A00002D10021C0F840110348406A002800D062
:1004B0000047704700B0004040000020074800217E
:1004C000C0F84011C0F84411C0F84811C0F84C11F0
:1004D000C0F80011C0F8041101F032BE0010014054
:1004E0007CB5144C606A01902078002821D001204E
:1004F000FFF719FF6568002666600120FFF729FFF6
:10050000E169002915D0E80703D08DF8006068463E
:100510008847A80705D501208DF80000E1696846E5
:100520008847680705D502208DF80000E169684614
:1005300088477CBDA401002001F074BD30B54FF0A8
:100540008050D0F83021D0F844125E4BC1F34231D4
:10055000196000218300C3F80C11C3F81011594B26
:100560001B1F1960584B1B68584C2360564B1B1DB2
:100570001B68241D2360544B08331B68241D236013
:10058000514B0C331B68241D23604F4B10331B68E9
:10059000241D23604C4B14331B68241D23604A4BDD
:1005A00018331B68494C20342360474B1C331B68AD
:1005B000241D2360444B20331B68241D2360424BC1
:1005C00024331B68241D23603F4B28331B68241DE4
:1005D00023603D4B2C331B68241D23603A4B303382
:1005E0001B683A4C40342360374B34331B68241D5E
:1005F0002360354B38331B68241D2360324B3C335A
:100600001B68241D2360304B40331B68241D23606E
:1006100001240A2A05D1D0F8343113B92C4DFB231B
:100620002B602C4B1B78062B15D12A4B1B1D1B78DE
:100630001B0710D1274B08331B78C3F30313032B7D
:1006400003D0042B01D0052B05D1D0F85832224D10
:1006500003F04F032B6021480268D20702D06FF0ED
:10066000010202604FF01022D2F80002002803DBE2
:10067000D2F80402002821DA194B1C6019480468DA
:10068000002CFCD01524C2F800420568002DFCD0D7
:10069000C2F804420268002AFCD0196001680029EF
:1006A000FCD0BFF34F8F10480168104A01F4E0619D
:1006B00011430160BFF34F8F00BFFDE70D490C48A8
:1006C000086030BD3C0500400404001020C5004017
:1006D00018F50040E00F00F0E40E00400004004078
:1006E00004E5014000E401400CED00E00400FA05DF
:1006F0000090D003EC010020014800680047000092
:100700007C01002002E008C8121F08C1002AFAD1AB
:1007100070477047002001E001C1121F002AFBD181
:100720007047006890FAA0F000BA00BA7047000065
:1007300072B609480068C00700D000BEBFF34F8FF3
:100740000548E4380168054A01F4E061114301609D
:10075000BFF34F8F00BFFDE7F0ED00E00400FA05A6
:100760000EB500210091CDE901106A4644F2010066
:10077000FFF7DEFF0EBD00F003B800F009B800007F
:1007800072B602480168491C016070478C01002064
:1007900003490868401E086000D162B67047000037
:1007A0008C0100202DE9FC410646C0074FF00005F2
:1007B0000ED0104F00240122385D00950023114611
:1007C000019500F027FE641C042CF4D300F01CF803
:1007D000B0070DD5074E0024361D0022305D0323DF
:1007E00000951146019500F015FE641C042CF4D30D
:1007F000BDE8FC81702300000249085C012100F083
:100800003BBE00007023000010B500242046FFF717
:10081000F3FF641C042CF9D310BD006890FAA0F01B
:1008200000BA704770B50F4DA8680F4CC4F80002AD
:100830000E486969C07C88470E490D480860002150
:10084000C4F8101101202061D4F81021002AFBD037
:10085000C4F81011A96841F00401C4F800126060E6
:1008600070BD0000A4010020001000402005002001
:10087000880A00200415004070B5084C050009D016
:1008800010342168002907D008682060496828468C
:100890008847F6E70834F4E770BD00000004002044
:1008A000054A012120B1012805D19170FFF7E4BF6D
:1008B00051700020FAE77047000400202DE9F05F36
:1008C00026484168F1B3DFF898B00E688146DBF83E
:1008D000004087688078E11B21F07F45ED1CB0B9AE
:1008E000DFF880804FF48030C8F84403C8F8040370
:1008F0001120FFF702FD1120FFF720FD4FF0010A44
:10090000C8F800A02F2000F009FE89F802A0B54227
:1009100000D23546124BE8193C3320F07F40186076
:10092000DBF800105A46091B21F07F41001B20F024
:100930007F40C91C81420FD9106818602F2000F039
:10094000EDFD00E004E0BDE8F05F1120FFF70CBD15
:10095000BDE8F05F01F052B9BDE8F09F90010020C2
:1009600004150140001001400548402100F8011B1A
:10097000012100F8011B40220249FFF75DBC000085
:10098000F0010020000000200E4910B50A784C78D4
:100990000023A24212D0521CD2B20A70022A00D105
:1009A0000B70084A0B780C3252F8232002608868DA
:1009B000104420F07F408860012010BD03600020BB
:1009C00010BD00009001002070B508240F252046BE
:1009D00000F032FD641CAC42F9D90120FFF7E2FEC1
:1009E000042000F029FD1C2000F026FD1D2000F051
:1009F00023FD1E2000F020FD042000F025FD1C201A
:100A000000F022FD1D2000F01FFDBDE870401E20FB
:100A100000F01ABD70B501F0E3F81E490020A1F501
:100A2000167300BFC0EB001202EB82021A4441F8B9
:100A30002020401C0828F5DB164900202C3101F548
:100A4000167200BFC0EB001404EB84040C4442F89F
:100A50002040401C0828F5DB00200F4A4FEA000127
:100A6000C0EB001404EB8404E51800EB4004401CC8
:100A700042F8245002EB840408282171A160EFDBC6
:100A8000054A002012F1600242F82010401C08289C
:100A9000FADB70BD90070020D00A002002681346E0
:100AA00002E08A4204D01268002AFAD10B60016089
:100AB000704700002DE9F047394E002780463D463B
:100AC000DFF8E090D6F804A057E003D00446D0F851
:100AD0001C8035E099F8002002EB4201521CD2B292
:100AE00089F8002009EBC10199F80230091D9A42EA
:100AF00001D189F8005048680A780446012A12D0CA
:100B0000022A02D0032A3BD108E001F0E9FA00B141
:100B10000127257434E00574C06900E0706800287E
:100B2000F9D170602CE0207C50BB88686060C86898
:100B3000A0600869E0604869A061F07800B1656074
:100B40006268B168184B501A20F07F40984202D278
:100B5000A168084406E0881AA16820F07F4081421D
:100B600002D9081A206000E0256065600120A560B8
:100B700020742046E56101F095FAB8F10000A4D197
:100B800099F8001099F801008142A3D117B9716852
:100B9000514502D00120BDE8F0870020FBE70000AE
:100BA0009001002014040020FFFF7F00FFF70CFFDE
:100BB00000F02CF808B1FFF7D3FD002000F044F856
:100BC000FFF7D2FE0123074A0421002000F068FF4E
:100BD000054800F0DFFE00F0F1FE20BF40BF20BF5F
:100BE000FBE7000011190000F001002000F1804037
:100BF0000068002800D00120704708B500F180404F
:100C0000002101600068009008BD000070B50C4C28
:100C10000125207808B185260BE00020A0606060E7
:100C20002061E060074800F051FC064600F038FC07
:100C3000257000F02DFC00B1A570304670BD00009D
:100C400000040020A108000070B5104D0446A878EB
:100C500038B114B16168012088470020FFF78BFD8F
:100C60000CE00020FFF787FD24B108482146103032
:100C7000FFF714FFE86808B900F038FCE868401C8A
:100C8000E860BDE870400020FFF777BD0004002059
:100C900070B50C494FF4705008600B4C002565701E
:100CA000257000F09DFF20210848FFF7DEFAE5627D
:100CB00014202563FFF737FB05490320C1F8000224
:100CC000002070BD08F50140A4010020500B002059
:100CD000001000400449497809B1112070470249C9
:100CE0003431887400207047A4010020094810B5F1
:100CF000007860B10120FFF716FB074800218162F0
:100D0000016241620120FFF724FB002010BD082092
:100D100010BD0000A40100209007002070B5050060
:100D200012D0394C207818B1FFF7B2FF00280CD14F
:100D30006868E061182229463448FFF77DFA334E8F
:100D4000707D282802D006E00E2070BD3048016872
:100D500041F0010101600025656020212D48FFF769
:100D600084FAE562256301F071FAE8B32A494FF08D
:100D7000E7300860091D4FF043300860091D27481F
:100D80000860091D26480860FFF744FE2549042035
:100D90000860244808380560234840F20221C0F862
:100DA0000012234A21491160111D08601F48001DCF
:100DB000091D08601C481030091D0860091D1D48E8
:100DC00008601A48F038091D08601A48001D091DFE
:100DD0000860091D18480860707C00F007010120B8
:100DE000FFF7D8FAB07C00E00CE000F00701142017
:100DF000FFF7D0FA1420FFF7ACFA657001202070DD
:100E0000002070BD072070BDA40100202005002037
:100E100050160040500B00201C150040E743C32330
:100E2000A363E31310A5004000A0004000110040A0
:100E300060F5014040A100400010004070B500780E
:100E4000002834D0012832D0022830D1184800F0D0
:100E5000BBF8174C01253B3C00BB607A144910B12C
:100E6000012803D014E0487958B111E04879607046
:100E700038B12570B4F84100208394F84300A0767F
:100E800006E0B4F84100A4F8150094F84300E075BA
:100E9000084800F027FAA16A012088470220607202
:100EA0000548856005490F2008600020A07170BDCD
:100EB0007B000020FE02002000B0004040B5004052
:100EC0002DE9F05F07463E4C0078002504F11C0A2E
:100ED000F0B304F112094FF0010804F10E0B04F114
:100EE0000C06012802D0022831D102E0FFF7FEFEF5
:100EF0002BE0E079324A43460BF80080103206F8C6
:100F000000805946155401280BD10A780AB132786D
:100F10003AB19BF8011009B1717811B1627909F801
:100F2000025027490A310D541631237031F8102030
:100F3000521C21F810202349085C4FF0A041834047
:100F4000C1F80C35A16A00208847387800B100E06C
:100F500019E0E17938EA0100E07122D09BF8001035
:100F600009B1317849B19BF8010008B1707820B11E
:100F7000617909F8015035707570E1793AF81120FE
:100F8000521C2AF81120E0793AF81020B2F57A7F45
:100F900005D10B492AF81050203121F81050BDE836
:100FA000F09F60790321401CB0FBF1F201FB1200BD
:100FB000034960711531085C00F0D6F8DDE70000E8
:100FC000400000204823000070B505461E48007808
:100FD00080B385B31D4CA06A70B30120FFF7A3F95D
:100FE000606A54F820100A782A7054F82010497862
:100FF000697054F820108978A97054F82010097984
:10100000297154F82010C978E97054F82010681D2F
:10101000491DFFF711F9606A401C6062082801D37E
:1010200000206062A06A401EA0620120FFF791F9D3
:10103000002070BD01E002E003E00820F9E70E2087
:10104000F7E70520F5E70000A4010020140A0020BE
:10105000144A10B5517809B1112010BD124900236E
:10106000C1F810319468C1F80042042454700F4A4A
:1010700010600120C1F80400D1F80021002AFBD043
:10108000C1F80031C1F81400D1F81C010028FBD0D0
:10109000C1F81C3100F0EEF8044840300068C0B2DE
:1010A00010BD0000A4010020001000400815004001
:1010B00010B50C460146204600F0FEF80548032214
:1010C000015D491CB1FBF2F302FB13110155002035
:1010D00010BD0000D0010020074910B54A780AB1C0
:1010E000112010BD30B100684863012001F062F8A2
:1010F000002010BD0E2010BDA4010020074910B52E
:101100004A780AB1112010BD30B10068886302200E
:1011100001F050F8002010BD0E2010BDA4010020E9
:1011200010B50C460F49497809B1112010BD18B10E
:10113000082C03D9072010BD0E2010BD0146094818
:1011400022463C30FFF778F80648C4F108023430F4
:10115000FF210474D1408174042001F02BF8002099
:1011600010BD0000A40100200649497809B11120F2
:101170007047642801D90720704702493431C87488
:1011800000207047A40100200E4810B50078A0B1DF
:101190000D4CA06A98B10120FFF7C5F8A06A401E67
:1011A000A062606A401C6062082801D3002060626F
:1011B0000120FFF7CEF8002010BD082010BD4FF42D
:1011C000807010BDA40100209007002070B51A485F
:1011D000417809B1112070BD184C4FF0FF31C4F8AF
:1011E00008130025C4F810511549C160816841F009
:1011F0000401C4F800121021C4F804130421417042
:101200000D48104A3430817C11600E49C07C283969
:101210000860091F0C48086001209434FFF778F833
:101220000120FFF796F825676567E567012044F818
:10123000900C002070BD0000A401002000100040B0
:101240002D15000030150040880A0020074810B511
:10125000407808B1112010BD0548806A18B100F02F
:101260004FFE002010BD4FF4807010BDA40100207F
:10127000900700200E4A5078042805D050780528A1
:1012800002D040F2011070470A480021C0F8001255
:101290004B1EC0F80833D160C0F810110123036160
:1012A000D0F81031002BFBD05170002070470000A7
:1012B000A401002000100040094A10B552780AB17C
:1012C000112010BD082801D3072010BD044A343274
:1012D00010440172042000F06DFF002010BD0000DA
:1012E000A40100202DE9F047DFF818A106469AF87E
:1012F000000040B156B1307868B146280BD8424F53
:10130000397829B109E00820BDE8F0870E20FBE715
:10131000F97C884201D90920F6E73C4CA06A0828EC
:1013200001D30420F0E77078082801D30720EBE709
:101330000120FEF7F8FFDFF8CC8078784FF0000945
:1013400008F12C0860B13249002000BF00EB4002D8
:1013500001EB82021279EAB1401C0828F6DB42E078
:10136000206A4B22314654F82000FEF765FF727860
:1013700018F80210491C01F0030108F80210206A55
:1013800054F82020401C08281171206228D3C4F88A
:10139000209025E000EB400011EB800523D00120D8
:1013A0002871C5F808904B2231462868FEF744FFA3
:1013B000727818F80210491C01F0030108F80210B5
:1013C0002868134A01717178603252F8210018B907
:1013D00042F8215004E0084681680029FBD185606D
:1013E000A06A401CA0620120FEF7B3FF787830B9F4
:1013F000387C20B99AF8010008B900F081FD00207E
:1014000082E70000A40100202005002090070020B2
:10141000D00A002070B541EA4201DDE904564FF0E0
:10142000A04441EA830141EA052104EB800041EA3E
:101430000641C0F8001770BD4FF0A04202EB8000DB
:101440000321C0F8001770474FF0A04201218140EE
:10145000C2F80C1570474FF0A04201218140C2F83C
:101460000815704731B14FF0A04201218140C2F808
:1014700008157047FFF7E8BF01224FF0A0438240F4
:1014800011B1C3F808257047C3F80C257047000058
:1014900002480068002800D0012070470004014085
:1014A00008480068012110F0010F06D14FF0E0203C
:1014B000C02280F80024C0F8001103490120086010
:1014C0007047000000E100E01805004006490246B0
:1014D00000200B790BB1852070470A6001220A7148
:1014E00000224A71704700008401002010B54FF4BB
:1014F0008270FFF782FB02204107C1F80403024912
:101500000120086010BD000008000040002802D043
:10151000014980010847704751230000002802D08C
:101520000149800108477047812300002DE9F05FE1
:10153000614800220127006818B16048806A0828C5
:1015400003D3BDE8F05FFFF76DB9DFF86C9109F1E7
:101550000809D9F800005A4901EB800509F1040196
:101560000C68564B2E887433B442587805D1AC7849
:10157000B4EB500F01D1012200274008A870086881
:101580009B4628804F48DFF840A1017D19B19BF8A8
:101590000110C90710D0DAF808104C4B41F00801CF
:1015A000C3F800124849454C0078496900262C349C
:1015B000A8B301285BD102E0FFF734F964E0DFF85B
:1015C00010E1DEF828C0BCF1000F42D0D9F800804D
:1015D0004B460EF5687050F82880B8F1000F38D0EF
:1015E0001B68D04650F823301B68CAF81830EB78D7
:1015F000012B1DD1E2B9D9F80020BCF1010C50F843
:1016000022301E7150F822309B6840F82230CEF80C
:1016100028C005D023B11868C8F8180002E020E0FF
:10162000C8F81860D8F8040040F00100C8F80400B9
:10163000D8F8180068B10122EA7000788847D8F815
:1016400018100878207011F8052BA01CFEF7F4FD87
:1016500003E0EE700020884726709BF80100607060
:1016600005E0002088479BF8000020706670052187
:101670008AF80110D9F80010164A11601549283966
:101680000C601549CAF80C10002F12D0A978D9F8AF
:101690000000C0B200F0E8FB00280AD0DAF804101D
:1016A00041F00401CAF80410BDE8F05F1420FEF711
:1016B00066BEBDE8F09F000000140040140A002040
:1016C000500B002020050020A40100200010004045
:1016D000900700202C150040DD16000010B5094CC5
:1016E000A068094940F00400C1F800020748616998
:1016F000C07C88470749064808600748E060042026
:10170000607010BDA40100200010004020050020E2
:10171000880A0020041500402D15000070B5174CF4
:10172000A068174BC3F80002A06A16490860164863
:101730008189427D891A134A121D116013490122C1
:1017400041F80C2F0022C1F83421C1F83821104D86
:101750004FF4E051296059142D1D2960C3F80C2164
:10176000007810B96169002088470B490948086072
:101770000A48E0600320607070BD0000A4010020F2
:101780000010004040A500402005002000A00040BF
:1017900004F50140880A002004150040DD17000010
:1017A00010B50C4C606840F001006060FFF7ECFC85
:1017B0000948806A30B11420FEF7E1FDBDE8104011
:1017C00000F09EBB00206070BDE810401420FEF7C2
:1017D000D6BD0000A4010020900700202DE9F047AD
:1017E000414A4FF4E05010604049D1F80C31DFF825
:1017F000009100273F4CB9F80E004E14DFF8F88036
:101800000125E3B33D4B1B68CBB325611660D8F8C7
:10181000041041F00101C8F80410D8F82010401A53
:10182000401CC8F82400FFF7AFFC99F8000088B10D
:1018300009F5AD60017869B1407841083048006829
:10184000C0B200F011FB28B1D8F8040040F0040049
:10185000C8F804002B48806A50B199F8100001289C
:1018600006D01420FEF78BFDBDE8F04700F048BB22
:1018700088F80170BDE8F0471420FEF780BDD8F865
:1018800020C0BCF1010CC8F820C00BD22561166045
:10189000401CC8F82400D8F8040040F00200C8F842
:1018A0000400E5E7D8F808000F4640F00802C1F848
:1018B0000022D8F81800D8F814100078884710488B
:1018C0001149283801601148C8F80C00022088F836
:1018D000010025600448001F0660D4F84401002878
:1018E00000D03D60BDE8F08708F5014000100040E1
:1018F0002005002000A00040A401002000140040AA
:101900002C15004090070020400A00201D17000001
:1019100010B501283AD11E4CE078410703D000F001
:101920000700042801D9012100E000211120FFF760
:1019300099FDE07800F00700012801D9052801D9B8
:10194000012100E000211220FFF78CFDE07800F07B
:101950000700022801D9062801D9012100E0002151
:101960001320FFF77FFDE07800F00700032801D87F
:10197000012100E000211420FFF774FDE078401CF5
:10198000E070BDE81040024800F004B810BD00004F
:10199000F0010020044B0121597001781970027880
:1019A000811C581DFEF748BCFE02002002490120A0
:1019B00008602F20FFF7AABD00B0004010B5094C09
:1019C00000200949607278200860FFF7EFFFFFF7F9
:1019D000FDFB08B1FEF7C4FE1E20FFF73CFD012011
:1019E000207210BD4000002040B500402DE9FE43AC
:1019F00027A207CA8DE8070000202849FF2200BF60
:101A000001EB4003401CC0B25A700928F8D30025EE
:101A10006E4688465FF0000408EB4407797831553C
:101A200018F81400FFF714FB7870315D884200D974
:101A300079700A20FFF76AFD641CE4B2092CEBD32D
:101A40006D1CEDB2322DE5D30020451CE9B24246B3
:101A500008EB400414E002EB410366785F78BE4275
:101A60000CD212F8107012F811C002F810C093F8DE
:101A700001C084F801C002F811705E70491CC9B23F
:101A80000929E8D3E8B20928DFD3BDE8FE830000C6
:101A9000FFFFFFFFFFFFFFFFFF000000EC02002041
:101AA0002DE9F043074645A087B00068444D0690F5
:101AB0000E46AA629946182242496846FEF7BCFBC8
:101AC000012404208DF800408DF808000FB13E4835
:101AD00000E03E48019087F001008DF80100ADF86C
:101AE0000E40C8204FF00008ADF80C008DF81480AF
:101AF0008DF80A608DF810406846FFF70FF93148FD
:101B00001838FFF7E9FA2F481438FFF7F7FA2C4E88
:101B100015363078FFF728FB0FB98DF819900221A0
:101B200006A8FFF7FDFA0320FFF7D4F80FB1284805
:101B300000E02848284968624FF48030C1F8040367
:101B400042114FF0E020C0F88022C0F80021D004FC
:101B5000C0F80081C0F80040D0F800110029FBD087
:101B60001749002032311D4CFF220B5C04F8103065
:101B700004EB4003401CC0B25A700928F5D3FFF7AC
:101B800035FF002014F810103154401CC0B2032857
:101B9000F8D3B5F815002883E87DA8760849002019
:101BA00011F12C0104EB400292790A54401CC0B29E
:101BB0000628F7D307B0BDE8F0830000000100005D
:101BC0004000002058230000C10E00003D0E000020
:101BD000751D0000391C000000B00040EC02002020
:101BE0000549002008624862886201F52171086297
:101BF00048628862704700009007002070B5012697
:101C000070044FF0E0210025C1F88001084C40101D
:101C1000C4F84803C4F8080366602F20FFF77EFC71
:101C2000A660044C2F20A560FFF778FCA57070BD5E
:101C300000100140900100202DE9F047DFF82481D9
:101C4000494E012498F809004FF0A0494FF0804A0E
:101C5000002548B1454F022827D098F80100A8B3C5
:101C6000401E88F8010045E0B46098F8080038B1DB
:101C700088F80850FFF7FEFAC9F80CA5BDE8F08710
:101C800088F808401E20FFF7E6FB98F805000921B8
:101C9000401CB0FBF1F201FB1200354988F8050049
:101CA00011F81000FFF760FA57E098F8020018B931
:101CB000FFF7E0FAC9F80CA588F809404046B4607F
:101CC00098F8021019B18570FF2101E005E01E218E
:101CD0003960047188F80340D0E798F8000048B1F3
:101CE000B8F81800A8F8150098F81A0088F8170036
:101CF00088F8005098F806000C2809D388F8095095
:101D0000B4607820386088F8045088F8055024E0E2
:101D100098F80410D9B1B4603C20386098F80300FA
:101D200008B9FFF7A7FA0F4898F805101530405C7E
:101D3000FFF71AFA98F805000321401CB0FBF1F2F6
:101D400001FB120088F8050088F8035002E0401CEF
:101D500088F806001E20FFF77EFBBDE8F047FFF77E
:101D600035BA00004000002000B0004040B50040FF
:101D7000EC020020F8B5FF200090FEF7B7FF3749CE
:101D800001208860364A0027A2F11004961EE079EF
:101D9000115C491CC9B21154642900D33754401C4A
:101DA000C0B20121FFF784F92D4DE079AD1F05F197
:101DB0003101285C4871208BA4F84100A07E84F892
:101DC00043000846FFF78EFA0090B0B100BF3078AC
:101DD00010B1707800B100BF207800283CD0E079C5
:101DE000315C1F4EB61C19B16179725C521C725481
:101DF000295C51B1491E295413E0FFF727FA19480D
:101E0000E179405CFFF727FBE1E715490322083140
:101E1000C81EFEF735FA20B1208BA4F81500A07E6D
:101E2000E0756179705C062816D30D483780B7706D
:101E3000401D0B4A27701C32A2F11406405C137837
:101E40007354D4F82D3094F831105071E36284F853
:101E50003010052028706870F8BD000000B0004008
:101E600050000020482300002DE9F041224C074695
:101E70008846A06A08283DD2A4F2F44120460A7898
:101E80000026006A01F5AD65012A03D04A7842B107
:101E9000C97C02E0297846292CD854F820201170FA
:101EA00002E054F820100E7054F82000A91C10F81D
:101EB000052BFEF7C1F9206A54F820104F700F4926
:101EC000096854F82020917054F8202082F804808A
:101ED000697854F8202041F30001491C401CD1705E
:101EE0002062082800D32662A06A401CA06201205C
:101EF000BDE8F0810020FBE7140A002048150040EF
:101F00002DE9F05F404C4FF00108C4F824803F48B1
:101F1000DFF8FCA0A0F51C77416A3E4D4FF0000BA6
:101F200050F82110A161387807F5A46610B1012896
:101F300044D10DE0087861698847A169087930705B
:101F400086F801B011F8052BB01CFEF775F919E001
:101F5000C87828B3387D18B300200A7832700A791F
:101F600081465206120E7270CB783046D3B10023F0
:101F70001A43427011F8052BB01CFEF75DF9B9F158
:101F8000000F11D0A06840F00800C5F80002112031
:101F9000C5F80403F88920620220C4F80CA00CE004
:101FA0000120DAE70123E3E7A068C5F8000210206A
:101FB000C5F804031848E06040466070A069174AFD
:101FC000417811604078444608FA00F0111D08601D
:101FD0000D48124934302439C07C0860081F06605F
:101FE0000120FEF795F90120FEF7B3F9C5F804B119
:101FF000C5F808B1C5F810B109494FF00070086084
:102000002C60BDE8F09F0000A40100209007002094
:102010001D17000000100040A11700002C15004003
:10202000080500502DE9F84F1D4C00256846D4E9FD
:1020300001A6FEF7A9FC002738B30023009A6168C7
:102040001CE0D1F800C00846944503D9ACEB02026D
:102050000A6015E0A2EB0C0263440760D0F80CC0E4
:10206000C1698146BCF1000F08D006EB030828F0D7
:102070007F48C0E9018CC9F81C5005460029E0D111
:1020800028466160FEF716FD03E02846FEF712FDC4
:1020900010B15046FEF712FCE770BDE8F88F000063
:1020A000900100200D4B10B5596831B102680C68E1
:1020B000A24204D8A21A0A60C161586010BD0B4642
:1020C00003E00B46C969121B21B10C689442F8D396
:1020D000A41A0C600260C161D86110BD900100209B
:1020E0002DE9F041144E77683D462C4603E08442CA
:1020F00004D02546E469002CF9D11BE0D4B1A542F7
:102100000BD1F869706040B90C490120886000214A
:10211000B160F0702F20FFF701FA2168E069E861F3
:1021200010B10268114401607068874202D001203A
:10213000BDE8F0810020FBE7900100200010014085
:102140002DE9F041194D6C68002C2CD0184800275F
:102150000068A968B846401A20F07F462068B0425F
:102160000CD82146361A0744E469087C20B181F86E
:102170001080886949698847002CEFD129786878F0
:10218000814206D1401CC0B26870022801D185F896
:102190000180064869780C3040F82170BDE8F041B4
:1021A0001520FEF7E1B8BDE8F081000090010020A5
:1021B0000415014010B50446C00704D00F48FEF7CF
:1021C000B0FA0F490860A00706D50C48001DFEF7BD
:1021D000A8FA0B49091D086060070DD507480830AB
:1021E000FEF71BFB06490831086004480C30FEF777
:1021F00014FB03490C31086010BD0000D801002019
:102200001C1500400E490F480A7A02600E48492307
:1022100052B1012A05D0032A06D0042A01D0002099
:1022200070472D22826200E083628B89826A3E328F
:10223000934202D2806A3E308881012070470000BC
:102240002005002010150040A401002070B500F00A
:102250003FF8FFF7D7FF1849184A0B787BB1012BDD
:102260000BD00023034016484D7A041FB5B1012D51
:102270000ED0022D07D0002417E0124B00E0124BC5
:1022800053610123EEE74FF6FF7606600F4803E047
:10229000FF26066040F20710206002E0002606607C
:1022A00026600748083805600124C87C51691C4035
:1022B0008847204670BD000020050020A4010020B2
:1022C0003C15004011230000E52200002110010010
:1022D00002480349807A086070470000200500200A
:1022E0000C150040084A074911600849497C491EFD
:1022F000090441EA0021014341F08070111D08608A
:10230000704700000001010014150040D8010020B2
:1023100007490648086007480749407C401E41EAD3
:1023200000400349091D08607047000008000300D1
:1023300014150040D80100204600000100000000F4
:10234000E7E7E7E7C2C2C2C203041C1D1E0000008B
:102350000738FDD8704700000100000000000000B1
:1023600004020000550003000001020000280000E4
:10237000111213140D0E0F100000000000000000D9
:102380000738FDD870470000A82300000000002097
:10239000F0010000C002000020240000F001002035
:1023A00080290000140700000041330100030405E8
:1023B000060708090A0B0C0D0E0F10111213141545
:1023C000161718191A1B1C1D1E1F20212223242535
:1023D000262728292A2B2C2D2E2F30313233343525
:1023E000363738393A3B3C3D3E3F404C022A480C98
:1023F0001620343E4E040105FFC0C1C2C3012B03A9
:102400002B13011019E7E7E7E7C2C2C2C2E7C2C354
:10241000C4C5C6C7C80805FF020090D0030000006D
:0400000500000201F4
:00000001FF
